:1000000000308A00D6280000FF00030E8301A10003
:100010007F08A0000A08A8008A01A00E0408A20018
:100020007708A3007808A4007908A5007A08A6003C
:100030007B08A700831383128C308400801E222843
:100040008C1A6528220884002308F7002408F80089
:100050002508F9002608FA002708FB0028088A006E
:10006000210E8300FF0E7F0E09000A108A100A116C
:10007000820754346F3464346F344F346B3400343B
:10008000F701F801450803104618F707F70CF80CBC
:10009000C618F707F70CF80C4619F707F70CF80C19
:1000A000C619F707F70CF80C461AF707F70CF80C07
:1000B000C61AF707F70CF80C461BF707F70CF80CF5
:1000C000C61BF707F70CF80C9E288C1E65281A082B
:1000D000A9003F084002031D71282908AA00C00A90
:1000E000BF2801303F074002031D7A282908AB00D2
:1000F000C00ABF2802303F074002031DB02829086C
:10010000AC00C001C30143083520C30AF7007708DB
:100110000C1E8828990006304302031D83282B0EED
:10012000C3000F30C3052C0EF7000F30F70577081A
:10013000C4004308C5007708C60040287808AD0011
:10014000A328FF30AD002D080C1EA42899002B0811
:100150000C1EA82899002C080C1EAC289900BF285A
:100160003F0840020318BF282E3040078400831345
:1001700000082902031DBE28C00ABF28C0018C1236
:100180008A11222842308400831300080319D528DD
:100190000630F800F701F70BCB28F80BCA287B30A4
:1001A000F700F70BD128800BC82800348401831393
:1001B0001F308305043083169900A63098009030D4
:1001C0008312980007309F005030AE00AF002030FF
:1001D000B0004930B1006C30B2007530B3006D3002
:1001E000B4006930B5006E30B6006130B7006330DE
:1001F000B8006930B9006F30BA006E30BB006530AE
:10020000BC007330BD00BE011030BF00C0018316BA
:100210000108C73908388100831290010030F800C6
:100220009200003083169200073083129F008316DD
:1002300005081030F700F70B1B29000083121F0878
:100240000C1383169F018C16C03083128B04003070
:100250006500023066000230C100FA30C200C220E0
:10026000C10B2D2983168510831285140230C1001D
:10027000FA30C200C220C10B3829831685108312C0
:0602800085102B2963002C
:02400E000A1F87
:00000001FF
;PIC16F628A
